{
  "contractName": "Dao",
  "abi": [
    {
      "constant": true,
      "inputs": [],
      "name": "total",
      "outputs": [
        {
          "name": "",
          "type": "uint256"
        }
      ],
      "payable": false,
      "stateMutability": "view",
      "type": "function"
    },
    {
      "constant": true,
      "inputs": [
        {
          "name": "",
          "type": "uint256"
        }
      ],
      "name": "teams",
      "outputs": [
        {
          "name": "lead",
          "type": "string"
        },
        {
          "name": "team",
          "type": "string"
        },
        {
          "name": "score",
          "type": "uint256"
        },
        {
          "name": "size",
          "type": "uint256"
        },
        {
          "name": "ama",
          "type": "uint256"
        },
        {
          "name": "submitted",
          "type": "bool"
        }
      ],
      "payable": false,
      "stateMutability": "view",
      "type": "function"
    },
    {
      "constant": true,
      "inputs": [],
      "name": "teamCount",
      "outputs": [
        {
          "name": "",
          "type": "uint256"
        }
      ],
      "payable": false,
      "stateMutability": "view",
      "type": "function"
    },
    {
      "constant": true,
      "inputs": [
        {
          "name": "",
          "type": "uint256"
        }
      ],
      "name": "solutions",
      "outputs": [
        {
          "name": "team",
          "type": "string"
        },
        {
          "name": "num",
          "type": "uint256"
        },
        {
          "name": "git",
          "type": "string"
        },
        {
          "name": "ppt",
          "type": "string"
        }
      ],
      "payable": false,
      "stateMutability": "view",
      "type": "function"
    },
    {
      "constant": true,
      "inputs": [
        {
          "name": "",
          "type": "uint256"
        }
      ],
      "name": "developers",
      "outputs": [
        {
          "name": "",
          "type": "string"
        }
      ],
      "payable": false,
      "stateMutability": "view",
      "type": "function"
    },
    {
      "inputs": [],
      "payable": false,
      "stateMutability": "nonpayable",
      "type": "constructor"
    },
    {
      "constant": false,
      "inputs": [
        {
          "name": "user",
          "type": "address"
        },
        {
          "name": "username",
          "type": "string"
        },
        {
          "name": "leader",
          "type": "bool"
        },
        {
          "name": "email",
          "type": "string"
        },
        {
          "name": "contact",
          "type": "string"
        },
        {
          "name": "pass",
          "type": "string"
        },
        {
          "name": "skill",
          "type": "string"
        },
        {
          "name": "team",
          "type": "string"
        }
      ],
      "name": "addUser",
      "outputs": [],
      "payable": false,
      "stateMutability": "nonpayable",
      "type": "function"
    },
    {
      "constant": false,
      "inputs": [
        {
          "name": "userEmail",
          "type": "string"
        },
        {
          "name": "leaderEmail",
          "type": "string"
        }
      ],
      "name": "joinTeam",
      "outputs": [],
      "payable": false,
      "stateMutability": "nonpayable",
      "type": "function"
    },
    {
      "constant": true,
      "inputs": [
        {
          "name": "email",
          "type": "string"
        }
      ],
      "name": "fetchScore",
      "outputs": [
        {
          "name": "",
          "type": "uint256"
        }
      ],
      "payable": false,
      "stateMutability": "view",
      "type": "function"
    },
    {
      "constant": true,
      "inputs": [
        {
          "name": "email",
          "type": "string"
        },
        {
          "name": "pass",
          "type": "string"
        }
      ],
      "name": "authorise",
      "outputs": [
        {
          "name": "",
          "type": "bool"
        }
      ],
      "payable": false,
      "stateMutability": "view",
      "type": "function"
    },
    {
      "constant": true,
      "inputs": [
        {
          "name": "email",
          "type": "string"
        }
      ],
      "name": "checkLeader",
      "outputs": [
        {
          "name": "",
          "type": "bool"
        }
      ],
      "payable": false,
      "stateMutability": "view",
      "type": "function"
    },
    {
      "constant": true,
      "inputs": [
        {
          "name": "email",
          "type": "string"
        },
        {
          "name": "i",
          "type": "uint256"
        }
      ],
      "name": "getMembers",
      "outputs": [
        {
          "name": "",
          "type": "string"
        }
      ],
      "payable": false,
      "stateMutability": "view",
      "type": "function"
    },
    {
      "constant": true,
      "inputs": [
        {
          "name": "email",
          "type": "string"
        }
      ],
      "name": "getTeam",
      "outputs": [
        {
          "name": "",
          "type": "string"
        }
      ],
      "payable": false,
      "stateMutability": "view",
      "type": "function"
    },
    {
      "constant": true,
      "inputs": [
        {
          "name": "email",
          "type": "string"
        }
      ],
      "name": "fetchDetails",
      "outputs": [
        {
          "name": "",
          "type": "string"
        },
        {
          "name": "",
          "type": "string"
        },
        {
          "name": "",
          "type": "string"
        }
      ],
      "payable": false,
      "stateMutability": "view",
      "type": "function"
    },
    {
      "constant": true,
      "inputs": [
        {
          "name": "email",
          "type": "string"
        }
      ],
      "name": "checkStatus",
      "outputs": [
        {
          "name": "",
          "type": "bool"
        }
      ],
      "payable": false,
      "stateMutability": "view",
      "type": "function"
    },
    {
      "constant": false,
      "inputs": [
        {
          "name": "email",
          "type": "string"
        },
        {
          "name": "problem",
          "type": "uint256"
        },
        {
          "name": "git",
          "type": "string"
        },
        {
          "name": "ppt",
          "type": "string"
        }
      ],
      "name": "addScore1",
      "outputs": [],
      "payable": false,
      "stateMutability": "nonpayable",
      "type": "function"
    },
    {
      "constant": false,
      "inputs": [
        {
          "name": "email",
          "type": "string"
        }
      ],
      "name": "addScore",
      "outputs": [],
      "payable": false,
      "stateMutability": "nonpayable",
      "type": "function"
    },
    {
      "constant": false,
      "inputs": [
        {
          "name": "email",
          "type": "string"
        },
        {
          "name": "marks",
          "type": "uint256"
        }
      ],
      "name": "addMarks",
      "outputs": [],
      "payable": false,
      "stateMutability": "nonpayable",
      "type": "function"
    },
    {
      "constant": true,
      "inputs": [
        {
          "name": "email",
          "type": "string"
        }
      ],
      "name": "didSubmit",
      "outputs": [
        {
          "name": "",
          "type": "bool"
        }
      ],
      "payable": false,
      "stateMutability": "view",
      "type": "function"
    }
  ],
  "bytecode": "0x608060405234801561001057600080fd5b50336000806101000a81548173ffffffffffffffffffffffffffffffffffffffff021916908373ffffffffffffffffffffffffffffffffffffffff160217905550612fea806100606000396000f3006080604052600436106100fc576000357c0100000000000000000000000000000000000000000000000000000000900463ffffffff1680632ddbd13a146101015780633219e73f1461012c57806335fef558146101955780633ed2b77a1461034f57806344b0a9951461048157806350c45e26146105025780637be22df9146105e457806381e603af146106ab5780638caa00831461075a5780638ce8600f14610785578063a39906c814610806578063b71698c7146108f2578063c087fe6a14610a77578063c23dece214610af4578063c3c10d1c14610b75578063d2ae152314610d68578063eff25cd614610e67578063ff12430814610f0d575b600080fd5b34801561010d57600080fd5b50610116610f80565b6040518082815260200191505060405180910390f35b34801561013857600080fd5b50610193600480360381019080803590602001908201803590602001908080601f0160208091040260200160405190810160405280939291908181526020018383808284378201915050505050509192919290505050610f86565b005b3480156101a157600080fd5b506101fc600480360381019080803590602001908201803590602001908080601f01602080910402602001604051908101604052809392919081815260200183838082843782019150505050505091929192905050506111a4565b60405180806020018060200180602001848103845287818151815260200191508051906020019080838360005b83811015610244578082015181840152602081019050610229565b50505050905090810190601f1680156102715780820380516001836020036101000a031916815260200191505b50848103835286818151815260200191508051906020019080838360005b838110156102aa57808201518184015260208101905061028f565b50505050905090810190601f1680156102d75780820380516001836020036101000a031916815260200191505b50848103825285818151815260200191508051906020019080838360005b838110156103105780820151818401526020810190506102f5565b50505050905090810190601f16801561033d5780820380516001836020036101000a031916815260200191505b50965050505050505060405180910390f35b34801561035b57600080fd5b5061037a600480360381019080803590602001909291905050506114d4565b60405180806020018060200187815260200186815260200185815260200184151515158152602001838103835289818151815260200191508051906020019080838360005b838110156103da5780820151818401526020810190506103bf565b50505050905090810190601f1680156104075780820380516001836020036101000a031916815260200191505b50838103825288818151815260200191508051906020019080838360005b83811015610440578082015181840152602081019050610425565b50505050905090810190601f16801561046d5780820380516001836020036101000a031916815260200191505b509850505050505050505060405180910390f35b34801561048d57600080fd5b506104e8600480360381019080803590602001908201803590602001908080601f016020809104026020016040519081016040528093929190818152602001838380828437820191505050505050919291929050505061164d565b604051808215151515815260200191505060405180910390f35b34801561050e57600080fd5b50610569600480360381019080803590602001908201803590602001908080601f01602080910402602001604051908101604052809392919081815260200183838082843782019150505050505091929192905050506116d9565b6040518080602001828103825283818151815260200191508051906020019080838360005b838110156105a957808201518184015260208101905061058e565b50505050905090810190601f1680156105d65780820380516001836020036101000a031916815260200191505b509250505060405180910390f35b3480156105f057600080fd5b50610691600480360381019080803590602001908201803590602001908080601f0160208091040260200160405190810160405280939291908181526020018383808284378201915050505050509192919290803590602001908201803590602001908080601f01602080910402602001604051908101604052809392919081815260200183838082843782019150505050505091929192905050506117e9565b604051808215151515815260200191505060405180910390f35b3480156106b757600080fd5b50610758600480360381019080803590602001908201803590602001908080601f0160208091040260200160405190810160405280939291908181526020018383808284378201915050505050509192919290803590602001908201803590602001908080601f0160208091040260200160405190810160405280939291908181526020018383808284378201915050505050509192919290505050611935565b005b34801561076657600080fd5b5061076f611d67565b6040518082815260200191505060405180910390f35b34801561079157600080fd5b506107ec600480360381019080803590602001908201803590602001908080601f0160208091040260200160405190810160405280939291908181526020018383808284378201915050505050509192919290505050611d6d565b604051808215151515815260200191505060405180910390f35b34801561081257600080fd5b50610877600480360381019080803590602001908201803590602001908080601f016020809104026020016040519081016040528093929190818152602001838380828437820191505050505050919291929080359060200190929190505050611e08565b6040518080602001828103825283818151815260200191508051906020019080838360005b838110156108b757808201518184015260208101905061089c565b50505050905090810190601f1680156108e45780820380516001836020036101000a031916815260200191505b509250505060405180910390f35b3480156108fe57600080fd5b5061091d60048036038101908080359060200190929190505050611f40565b60405180806020018581526020018060200180602001848103845288818151815260200191508051906020019080838360005b8381101561096b578082015181840152602081019050610950565b50505050905090810190601f1680156109985780820380516001836020036101000a031916815260200191505b50848103835286818151815260200191508051906020019080838360005b838110156109d15780820151818401526020810190506109b6565b50505050905090810190601f1680156109fe5780820380516001836020036101000a031916815260200191505b50848103825285818151815260200191508051906020019080838360005b83811015610a37578082015181840152602081019050610a1c565b50505050905090810190601f168015610a645780820380516001836020036101000a031916815260200191505b5097505050505050505060405180910390f35b348015610a8357600080fd5b50610ade600480360381019080803590602001908201803590602001908080601f0160208091040260200160405190810160405280939291908181526020018383808284378201915050505050509192919290505050612138565b6040518082815260200191505060405180910390f35b348015610b0057600080fd5b50610b5b600480360381019080803590602001908201803590602001908080601f01602080910402602001604051908101604052809392919081815260200183838082843782019150505050505091929192905050506121c6565b604051808215151515815260200191505060405180910390f35b348015610b8157600080fd5b50610d66600480360381019080803573ffffffffffffffffffffffffffffffffffffffff169060200190929190803590602001908201803590602001908080601f0160208091040260200160405190810160405280939291908181526020018383808284378201915050505050509192919290803515159060200190929190803590602001908201803590602001908080601f0160208091040260200160405190810160405280939291908181526020018383808284378201915050505050509192919290803590602001908201803590602001908080601f0160208091040260200160405190810160405280939291908181526020018383808284378201915050505050509192919290803590602001908201803590602001908080601f0160208091040260200160405190810160405280939291908181526020018383808284378201915050505050509192919290803590602001908201803590602001908080601f0160208091040260200160405190810160405280939291908181526020018383808284378201915050505050509192919290803590602001908201803590602001908080601f016020809104026020016040519081016040528093929190818152602001838380828437820191505050505050919291929050505061224b565b005b348015610d7457600080fd5b50610e65600480360381019080803590602001908201803590602001908080601f016020809104026020016040519081016040528093929190818152602001838380828437820191505050505050919291929080359060200190929190803590602001908201803590602001908080601f0160208091040260200160405190810160405280939291908181526020018383808284378201915050505050509192919290803590602001908201803590602001908080601f0160208091040260200160405190810160405280939291908181526020018383808284378201915050505050509192919290505050612893565b005b348015610e7357600080fd5b50610e9260048036038101908080359060200190929190505050612cf1565b6040518080602001828103825283818151815260200191508051906020019080838360005b83811015610ed2578082015181840152602081019050610eb7565b50505050905090810190601f168015610eff5780820380516001836020036101000a031916815260200191505b509250505060405180910390f35b348015610f1957600080fd5b50610f7e600480360381019080803590602001908201803590602001908080601f016020809104026020016040519081016040528093929190818152602001838380828437820191505050505050919291929080359060200190929190505050612da1565b005b60025481565b6000809054906101000a900473ffffffffffffffffffffffffffffffffffffffff1673ffffffffffffffffffffffffffffffffffffffff163373ffffffffffffffffffffffffffffffffffffffff16141515610fe157600080fd5b6001600660006004846040518082805190602001908083835b60208310151561101f5780518252602082019150602081019050602083039250610ffa565b6001836020036101000a03801982511681845116808217855250505050505090500191505090815260200160405180910390206008015481526020019081526020016000206004016000828254019250508190555060006005600660006004856040518082805190602001908083835b6020831015156110b4578051825260208201915060208101905060208303925061108f565b6001836020036101000a03801982511681845116808217855250505050505090500191505090815260200160405180910390206008015481526020019081526020016000206004015481151561110657fe5b0614156111a1576002600660006004846040518082805190602001908083835b60208310151561114b5780518252602082019150602081019050602083039250611126565b6001836020036101000a0380198251168184511680821785525050505050509050019150509081526020016040518091039020600801548152602001908152602001600020600201600082825401925050819055505b50565b60608060606004846040518082805190602001908083835b6020831015156111e157805182526020820191506020810190506020830392506111bc565b6001836020036101000a03801982511681845116808217855250505050505090500191505090815260200160405180910390206001016004856040518082805190602001908083835b60208310151561124f578051825260208201915060208101905060208303925061122a565b6001836020036101000a03801982511681845116808217855250505050505090500191505090815260200160405180910390206006016004866040518082805190602001908083835b6020831015156112bd5780518252602082019150602081019050602083039250611298565b6001836020036101000a0380198251168184511680821785525050505050509050019150509081526020016040518091039020600701828054600181600116156101000203166002900480601f0160208091040260200160405190810160405280929190818152602001828054600181600116156101000203166002900480156113885780601f1061135d57610100808354040283529160200191611388565b820191906000526020600020905b81548152906001019060200180831161136b57829003601f168201915b50505050509250818054600181600116156101000203166002900480601f0160208091040260200160405190810160405280929190818152602001828054600181600116156101000203166002900480156114245780601f106113f957610100808354040283529160200191611424565b820191906000526020600020905b81548152906001019060200180831161140757829003601f168201915b50505050509150808054600181600116156101000203166002900480601f0160208091040260200160405190810160405280929190818152602001828054600181600116156101000203166002900480156114c05780601f10611495576101008083540402835291602001916114c0565b820191906000526020600020905b8154815290600101906020018083116114a357829003601f168201915b505050505090509250925092509193909250565b6006602052806000526040600020600091509050806000018054600181600116156101000203166002900480601f0160208091040260200160405190810160405280929190818152602001828054600181600116156101000203166002900480156115805780601f1061155557610100808354040283529160200191611580565b820191906000526020600020905b81548152906001019060200180831161156357829003601f168201915b505050505090806001018054600181600116156101000203166002900480601f01602080910402602001604051908101604052809291908181526020018280546001816001161561010002031660029004801561161e5780601f106115f35761010080835404028352916020019161161e565b820191906000526020600020905b81548152906001019060200180831161160157829003601f168201915b5050505050908060020154908060030154908060040154908060050160009054906101000a900460ff16905086565b6000806004836040518082805190602001908083835b6020831015156116885780518252602082019150602081019050602083039250611663565b6001836020036101000a0380198251168184511680821785525050505050509050019150509081526020016040518091039020600801541415156116cf57600190506116d4565b600090505b919050565b60606004826040518082805190602001908083835b60208310151561171357805182526020820191506020810190506020830392506116ee565b6001836020036101000a03801982511681845116808217855250505050505090500191505090815260200160405180910390206007018054600181600116156101000203166002900480601f0160208091040260200160405190810160405280929190818152602001828054600181600116156101000203166002900480156117dd5780601f106117b2576101008083540402835291602001916117dd565b820191906000526020600020905b8154815290600101906020018083116117c057829003601f168201915b50505050509050919050565b60006004836040518082805190602001908083835b60208310151561182357805182526020820191506020810190506020830392506117fe565b6001836020036101000a038019825116818451168082178552505050505050905001915050908152602001604051809103902060050160405180828054600181600116156101000203166002900480156118b45780601f106118925761010080835404028352918201916118b4565b820191906000526020600020905b8154815290600101906020018083116118a0575b5050915050604051809103902060001916826040518082805190602001908083835b6020831015156118fb57805182526020820191506020810190506020830392506118d6565b6001836020036101000a03801982511681845116808217855250505050505090500191505060405180910390206000191614905092915050565b80600115156004826040518082805190602001908083835b602083101515611972578051825260208201915060208101905060208303925061194d565b6001836020036101000a038019825116818451168082178552505050505050905001915050908152602001604051809103902060020160009054906101000a900460ff1615151415156119c457600080fd5b6004826040518082805190602001908083835b6020831015156119fc57805182526020820191506020810190506020830392506119d7565b6001836020036101000a03801982511681845116808217855250505050505090500191505090815260200160405180910390206007016004846040518082805190602001908083835b602083101515611a6a5780518252602082019150602081019050602083039250611a45565b6001836020036101000a03801982511681845116808217855250505050505090500191505090815260200160405180910390206007019080546001816001161561010002031660029004611abf929190612e92565b506004826040518082805190602001908083835b602083101515611af85780518252602082019150602081019050602083039250611ad3565b6001836020036101000a0380198251168184511680821785525050505050509050019150509081526020016040518091039020600801546004846040518082805190602001908083835b602083101515611b675780518252602082019150602081019050602083039250611b42565b6001836020036101000a0380198251168184511680821785525050505050509050019150509081526020016040518091039020600801819055506001600660006004856040518082805190602001908083835b602083101515611bdf5780518252602082019150602081019050602083039250611bba565b6001836020036101000a03801982511681845116808217855250505050505090500191505090815260200160405180910390206008015481526020019081526020016000206003016000828254019250508190555082600660006004856040518082805190602001908083835b602083101515611c715780518252602082019150602081019050602083039250611c4c565b6001836020036101000a03801982511681845116808217855250505050505090500191505090815260200160405180910390206008015481526020019081526020016000206006016000600660006004876040518082805190602001908083835b602083101515611cf75780518252602082019150602081019050602083039250611cd2565b6001836020036101000a03801982511681845116808217855250505050505090500191505090815260200160405180910390206008015481526020019081526020016000206003015481526020019081526020016000209080519060200190611d61929190612f19565b50505050565b60015481565b6000600660006004846040518082805190602001908083835b602083101515611dab5780518252602082019150602081019050602083039250611d86565b6001836020036101000a038019825116818451168082178552505050505050905001915050908152602001604051809103902060080154815260200190815260200160002060050160009054906101000a900460ff169050919050565b6060600660006004856040518082805190602001908083835b602083101515611e465780518252602082019150602081019050602083039250611e21565b6001836020036101000a038019825116818451168082178552505050505050905001915050908152602001604051809103902060080154815260200190815260200160002060060160008381526020019081526020016000208054600181600116156101000203166002900480601f016020809104026020016040519081016040528092919081815260200182805460018160011615610100020316600290048015611f335780601f10611f0857610100808354040283529160200191611f33565b820191906000526020600020905b815481529060010190602001808311611f1657829003601f168201915b5050505050905092915050565b6005602052806000526040600020600091509050806000018054600181600116156101000203166002900480601f016020809104026020016040519081016040528092919081815260200182805460018160011615610100020316600290048015611fec5780601f10611fc157610100808354040283529160200191611fec565b820191906000526020600020905b815481529060010190602001808311611fcf57829003601f168201915b505050505090806001015490806002018054600181600116156101000203166002900480601f0160208091040260200160405190810160405280929190818152602001828054600181600116156101000203166002900480156120905780601f1061206557610100808354040283529160200191612090565b820191906000526020600020905b81548152906001019060200180831161207357829003601f168201915b505050505090806003018054600181600116156101000203166002900480601f01602080910402602001604051908101604052809291908181526020018280546001816001161561010002031660029004801561212e5780601f106121035761010080835404028352916020019161212e565b820191906000526020600020905b81548152906001019060200180831161211157829003601f168201915b5050505050905084565b6000600660006004846040518082805190602001908083835b6020831015156121765780518252602082019150602081019050602083039250612151565b6001836020036101000a0380198251168184511680821785525050505050509050019150509081526020016040518091039020600801548152602001908152602001600020600201549050919050565b60006004826040518082805190602001908083835b60208310151561220057805182526020820191506020810190506020830392506121db565b6001836020036101000a038019825116818451168082178552505050505050905001915050908152602001604051809103902060020160009054906101000a900460ff169050919050565b6000809054906101000a900473ffffffffffffffffffffffffffffffffffffffff1673ffffffffffffffffffffffffffffffffffffffff163373ffffffffffffffffffffffffffffffffffffffff161415156122a657600080fd5b876004866040518082805190602001908083835b6020831015156122df57805182526020820191506020810190506020830392506122ba565b6001836020036101000a038019825116818451168082178552505050505050905001915050908152602001604051809103902060000160006101000a81548173ffffffffffffffffffffffffffffffffffffffff021916908373ffffffffffffffffffffffffffffffffffffffff160217905550866004866040518082805190602001908083835b60208310151561238c5780518252602082019150602081019050602083039250612367565b6001836020036101000a038019825116818451168082178552505050505050905001915050908152602001604051809103902060010190805190602001906123d5929190612f19565b50856004866040518082805190602001908083835b60208310151561240f57805182526020820191506020810190506020830392506123ea565b6001836020036101000a038019825116818451168082178552505050505050905001915050908152602001604051809103902060020160006101000a81548160ff021916908315150217905550846004866040518082805190602001908083835b6020831015156124955780518252602082019150602081019050602083039250612470565b6001836020036101000a038019825116818451168082178552505050505050905001915050908152602001604051809103902060030190805190602001906124de929190612f19565b50836004866040518082805190602001908083835b60208310151561251857805182526020820191506020810190506020830392506124f3565b6001836020036101000a03801982511681845116808217855250505050505090500191505090815260200160405180910390206004019080519060200190612561929190612f19565b50826004866040518082805190602001908083835b60208310151561259b5780518252602082019150602081019050602083039250612576565b6001836020036101000a038019825116818451168082178552505050505050905001915050908152602001604051809103902060050190805190602001906125e4929190612f19565b50816004866040518082805190602001908083835b60208310151561261e57805182526020820191506020810190506020830392506125f9565b6001836020036101000a03801982511681845116808217855250505050505090500191505090815260200160405180910390206006019080519060200190612667929190612f19565b5060016002600082825401925050819055508460036000600254815260200190815260200160002090805190602001906126a2929190612f19565b50851561288957806004866040518082805190602001908083835b6020831015156126e257805182526020820191506020810190506020830392506126bd565b6001836020036101000a0380198251168184511680821785525050505050509050019150509081526020016040518091039020600701908051906020019061272b929190612f19565b50600180600082825401925050819055506001546004866040518082805190602001908083835b6020831015156127775780518252602082019150602081019050602083039250612752565b6001836020036101000a0380198251168184511680821785525050505050509050019150509081526020016040518091039020600801819055508060066000600154815260200190815260200160002060010190805190602001906127dd929190612f19565b5084600660006001548152602001908152602001600020600001908051906020019061280a929190612f19565b506001600660006001548152602001908152602001600020600301600082825401925050819055508460066000600154815260200190815260200160002060060160006006600060015481526020019081526020016000206003015481526020019081526020016000209080519060200190612887929190612f19565b505b5050505050505050565b6000809054906101000a900473ffffffffffffffffffffffffffffffffffffffff1673ffffffffffffffffffffffffffffffffffffffff163373ffffffffffffffffffffffffffffffffffffffff161415156128ee57600080fd5b600a600660006004876040518082805190602001908083835b60208310151561292c5780518252602082019150602081019050602083039250612907565b6001836020036101000a0380198251168184511680821785525050505050509050019150509081526020016040518091039020600801548152602001908152602001600020600201600082825401925050819055506004846040518082805190602001908083835b6020831015156129b95780518252602082019150602081019050602083039250612994565b6001836020036101000a0380198251168184511680821785525050505050509050019150509081526020016040518091039020600701600560006004876040518082805190602001908083835b602083101515612a2b5780518252602082019150602081019050602083039250612a06565b6001836020036101000a03801982511681845116808217855250505050505090500191505090815260200160405180910390206008015481526020019081526020016000206000019080546001816001161561010002031660029004612a92929190612e92565b5082600560006004876040518082805190602001908083835b602083101515612ad05780518252602082019150602081019050602083039250612aab565b6001836020036101000a03801982511681845116808217855250505050505090500191505090815260200160405180910390206008015481526020019081526020016000206001018190555081600560006004876040518082805190602001908083835b602083101515612b595780518252602082019150602081019050602083039250612b34565b6001836020036101000a03801982511681845116808217855250505050505090500191505090815260200160405180910390206008015481526020019081526020016000206002019080519060200190612bb4929190612f19565b5080600560006004876040518082805190602001908083835b602083101515612bf25780518252602082019150602081019050602083039250612bcd565b6001836020036101000a03801982511681845116808217855250505050505090500191505090815260200160405180910390206008015481526020019081526020016000206003019080519060200190612c4d929190612f19565b506001600660006004876040518082805190602001908083835b602083101515612c8c5780518252602082019150602081019050602083039250612c67565b6001836020036101000a038019825116818451168082178552505050505050905001915050908152602001604051809103902060080154815260200190815260200160002060050160006101000a81548160ff02191690831515021790555050505050565b60036020528060005260406000206000915090508054600181600116156101000203166002900480601f016020809104026020016040519081016040528092919081815260200182805460018160011615610100020316600290048015612d995780601f10612d6e57610100808354040283529160200191612d99565b820191906000526020600020905b815481529060010190602001808311612d7c57829003601f168201915b505050505081565b6000809054906101000a900473ffffffffffffffffffffffffffffffffffffffff1673ffffffffffffffffffffffffffffffffffffffff163373ffffffffffffffffffffffffffffffffffffffff16141515612dfc57600080fd5b80600660006004856040518082805190602001908083835b602083101515612e395780518252602082019150602081019050602083039250612e14565b6001836020036101000a0380198251168184511680821785525050505050509050019150509081526020016040518091039020600801548152602001908152602001600020600201600082825401925050819055505050565b828054600181600116156101000203166002900490600052602060002090601f016020900481019282601f10612ecb5780548555612f08565b82800160010185558215612f0857600052602060002091601f016020900482015b82811115612f07578254825591600101919060010190612eec565b5b509050612f159190612f99565b5090565b828054600181600116156101000203166002900490600052602060002090601f016020900481019282601f10612f5a57805160ff1916838001178555612f88565b82800160010185558215612f88579182015b82811115612f87578251825591602001919060010190612f6c565b5b509050612f959190612f99565b5090565b612fbb91905b80821115612fb7576000816000905550600101612f9f565b5090565b905600a165627a7a72305820205bf2c9592b814386c03ab5c91d70f996862165a29b5667fd0bbafea6cf5c4e0029",
  "source": "pragma solidity ^0.4.2;\r\ncontract Dao{\r\n\r\n    address owner;\r\n\r\n    constructor(){                \r\n        owner=msg.sender;\r\n    }\r\n    \r\n    struct Users{\r\n        address user;\r\n        string username;\r\n        bool leader;\r\n        string email;\r\n        string contact;\r\n        string pass;\r\n        string skill;\r\n        string team;\r\n        uint teamId;\r\n    }\r\n    \r\n    struct Team{\r\n        string lead;\r\n        string team;\r\n        uint score;\r\n        uint size;\r\n        uint ama;\r\n        bool submitted;\r\n        mapping( uint => string ) members;\r\n    }\r\n\r\n    struct Solution{\r\n        string team;\r\n        uint num;\r\n        string git;\r\n        string ppt;\r\n    }\r\n\r\n    uint public teamCount;\r\n    uint public total;\r\n\r\n    mapping ( uint => string ) public developers;\r\n    mapping ( string => Users ) userList;\r\n    mapping ( uint => Solution ) public solutions;\r\n    mapping ( uint => Team ) public teams;\r\n    \r\n    \r\n    modifier isOwner(){               \r\n        require(msg.sender==owner);\r\n        _;\r\n    }\r\n    \r\n\r\n    modifier isLeader(string id){               \r\n        require(userList[id].leader == true);\r\n        _;\r\n    }\r\n    \r\n    \r\n    function addUser(address user , string username , bool leader , string email , string contact , string pass , string skill , string team) isOwner{\r\n\r\n        userList[email].user=user;\r\n        userList[email].username=username;\r\n        userList[email].leader=leader;\r\n        userList[email].email=email;\r\n        userList[email].contact=contact;\r\n        userList[email].pass=pass;\r\n        userList[email].skill=skill;\r\n        total+=1;\r\n        developers[total]=email;\r\n\r\n        if(leader){\r\n        userList[email].team=team;\r\n        teamCount+=1;\r\n        userList[email].teamId=teamCount;\r\n        teams[teamCount].team=team;\r\n        teams[teamCount].lead=email;\r\n        teams[teamCount].size+=1;\r\n        teams[teamCount].members[teams[teamCount].size]=email;\r\n\r\n        }\r\n    }\r\n\r\n    function joinTeam(string userEmail , string leaderEmail) isLeader(leaderEmail) {\r\n        userList[userEmail].team=userList[leaderEmail].team;\r\n        userList[userEmail].teamId=userList[leaderEmail].teamId;\r\n        teams[userList[leaderEmail].teamId].size+=1;\r\n        teams[userList[leaderEmail].teamId].members[teams[userList[leaderEmail].teamId].size]=userEmail;\r\n    }\r\n\r\n\r\n\r\n    function fetchScore(string email) public view returns(uint){\r\n        return teams[userList[email].teamId].score;\r\n    }\r\n\r\n    function authorise(string email,string pass) public view returns(bool){\r\n        return keccak256(pass) == keccak256(userList[email].pass);\r\n    }   \r\n\r\n    function checkLeader(string email) public view returns(bool){\r\n        return userList[email].leader;\r\n    }\r\n    \r\n    function getMembers(string email,uint i) public view returns(string){\r\n        return teams[userList[email].teamId].members[i];\r\n    }\r\n\r\n    function getTeam(string email) public view returns(string){\r\n        return userList[email].team;\r\n    }\r\n\r\n    function fetchDetails(string email) public view returns(string,string,string){\r\n       return ( userList[email].username , userList[email].skill , userList[email].team );\r\n    }\r\n\r\n    function checkStatus(string email) public view returns(bool){\r\n       if(userList[email].teamId != 0)\r\n        return true;\r\n       else \r\n        return false;\r\n    }    \r\n\r\n    function addScore1(string email,uint problem ,string git, string ppt) isOwner{\r\n        teams[userList[email].teamId].score+=10;     \r\n        solutions[userList[email].teamId].team=userList[email].team;\r\n        solutions[userList[email].teamId].num=problem;\r\n        solutions[userList[email].teamId].git=git;\r\n        solutions[userList[email].teamId].ppt=ppt;   \r\n        teams[userList[email].teamId].submitted=true;\r\n\r\n    }\r\n    \r\n    function addScore(string email) isOwner{\r\n        teams[userList[email].teamId].ama+=1;   \r\n    \r\n        if(teams[userList[email].teamId].ama % 5 == 0)\r\n            teams[userList[email].teamId].score+=2;     \r\n    }\r\n\r\n    function addMarks(string email,uint marks) isOwner{\r\n        teams[userList[email].teamId].score+=marks;    \r\n    }\r\n\r\n    function didSubmit(string email) public view returns(bool){\r\n        return teams[userList[email].teamId].submitted;\r\n    }\r\n}",
  "sourcePath": "C:\\Users\\Siddharth\\Desktop\\SID\\exelis\\DAOO\\hackathon\\daoo-copy\\new\\daoo\\contracts\\Dao.sol",
  "compiler": {
    "name": "solc",
    "version": "0.4.24+commit.e67f0147.Emscripten.clang"
  },
  "schemaVersion": "2.0.0",
  "updatedAt": "2018-09-08T08:13:13.110Z"
}